{
  "_format": "hh-sol-artifact-1",
  "contractName": "NFTMarketplace",
  "sourceName": "contracts/SellNFTContract.sol",
  "abi": [
    {
      "inputs": [
        {
          "internalType": "address",
          "name": "_nftContractAddress",
          "type": "address"
        },
        {
          "internalType": "uint256",
          "name": "_royaltyPercentage",
          "type": "uint256"
        }
      ],
      "stateMutability": "payable",
      "type": "constructor"
    },
    {
      "anonymous": false,
      "inputs": [
        {
          "indexed": true,
          "internalType": "address",
          "name": "seller",
          "type": "address"
        },
        {
          "indexed": true,
          "internalType": "uint256",
          "name": "tokenId",
          "type": "uint256"
        },
        {
          "indexed": false,
          "internalType": "uint256",
          "name": "price",
          "type": "uint256"
        }
      ],
      "name": "NftListed",
      "type": "event"
    },
    {
      "anonymous": false,
      "inputs": [
        {
          "indexed": true,
          "internalType": "address",
          "name": "seller",
          "type": "address"
        },
        {
          "indexed": true,
          "internalType": "address",
          "name": "buyer",
          "type": "address"
        },
        {
          "indexed": true,
          "internalType": "uint256",
          "name": "tokenId",
          "type": "uint256"
        },
        {
          "indexed": false,
          "internalType": "uint256",
          "name": "price",
          "type": "uint256"
        }
      ],
      "name": "NftSold",
      "type": "event"
    },
    {
      "anonymous": false,
      "inputs": [
        {
          "indexed": true,
          "internalType": "address",
          "name": "seller",
          "type": "address"
        },
        {
          "indexed": true,
          "internalType": "uint256",
          "name": "tokenId",
          "type": "uint256"
        },
        {
          "indexed": false,
          "internalType": "uint256",
          "name": "royaltyFee",
          "type": "uint256"
        }
      ],
      "name": "RoyaltyFeeCalculated",
      "type": "event"
    },
    {
      "inputs": [
        {
          "internalType": "uint256",
          "name": "_tokenId",
          "type": "uint256"
        },
        {
          "internalType": "address",
          "name": "_seller",
          "type": "address"
        }
      ],
      "name": "approveSeller",
      "outputs": [],
      "stateMutability": "nonpayable",
      "type": "function"
    },
    {
      "inputs": [
        {
          "internalType": "uint256",
          "name": "",
          "type": "uint256"
        }
      ],
      "name": "approvedSellers",
      "outputs": [
        {
          "internalType": "address",
          "name": "",
          "type": "address"
        }
      ],
      "stateMutability": "view",
      "type": "function"
    },
    {
      "inputs": [
        {
          "internalType": "uint256",
          "name": "_listingIndex",
          "type": "uint256"
        }
      ],
      "name": "buyNFT",
      "outputs": [],
      "stateMutability": "payable",
      "type": "function"
    },
    {
      "inputs": [
        {
          "internalType": "uint256",
          "name": "_tokenId",
          "type": "uint256"
        },
        {
          "internalType": "uint256",
          "name": "_priceDecimal",
          "type": "uint256"
        }
      ],
      "name": "listNFT",
      "outputs": [],
      "stateMutability": "nonpayable",
      "type": "function"
    },
    {
      "inputs": [
        {
          "internalType": "uint256",
          "name": "",
          "type": "uint256"
        }
      ],
      "name": "nftListings",
      "outputs": [
        {
          "internalType": "address",
          "name": "seller",
          "type": "address"
        },
        {
          "internalType": "uint256",
          "name": "tokenId",
          "type": "uint256"
        },
        {
          "internalType": "uint256",
          "name": "price",
          "type": "uint256"
        }
      ],
      "stateMutability": "view",
      "type": "function"
    },
    {
      "inputs": [],
      "name": "owner",
      "outputs": [
        {
          "internalType": "address",
          "name": "",
          "type": "address"
        }
      ],
      "stateMutability": "view",
      "type": "function"
    },
    {
      "inputs": [
        {
          "internalType": "uint256",
          "name": "_tokenId",
          "type": "uint256"
        }
      ],
      "name": "removeSellerApproval",
      "outputs": [],
      "stateMutability": "nonpayable",
      "type": "function"
    },
    {
      "inputs": [],
      "name": "royaltyPercentage",
      "outputs": [
        {
          "internalType": "uint256",
          "name": "",
          "type": "uint256"
        }
      ],
      "stateMutability": "view",
      "type": "function"
    },
    {
      "inputs": [
        {
          "internalType": "uint256",
          "name": "_newRoyaltyPercentage",
          "type": "uint256"
        }
      ],
      "name": "setRoyaltyPercentage",
      "outputs": [],
      "stateMutability": "nonpayable",
      "type": "function"
    }
  ],
  "bytecode": "0x6080604052604051620013f0380380620013f083398181016040528101906200002991906200015e565b816000806101000a81548173ffffffffffffffffffffffffffffffffffffffff021916908373ffffffffffffffffffffffffffffffffffffffff16021790555033600160006101000a81548173ffffffffffffffffffffffffffffffffffffffff021916908373ffffffffffffffffffffffffffffffffffffffff160217905550806002819055505050620001a5565b600080fd5b600073ffffffffffffffffffffffffffffffffffffffff82169050919050565b6000620000eb82620000be565b9050919050565b620000fd81620000de565b81146200010957600080fd5b50565b6000815190506200011d81620000f2565b92915050565b6000819050919050565b620001388162000123565b81146200014457600080fd5b50565b60008151905062000158816200012d565b92915050565b60008060408385031215620001785762000177620000b9565b5b600062000188858286016200010c565b92505060206200019b8582860162000147565b9150509250929050565b61123b80620001b56000396000f3fe6080604052600436106100865760003560e01c80638a71bb2d116100595780638a71bb2d1461014c5780638da5cb5b1461017757806394383f14146101a2578063acd25c18146101cb578063cc253a65146101f457610086565b80630c7620351461008b57806351ed8288146100c857806361ba27da146100e45780637c5bb03d1461010d575b600080fd5b34801561009757600080fd5b506100b260048036038101906100ad9190610b9f565b61021d565b6040516100bf9190610c0d565b60405180910390f35b6100e260048036038101906100dd9190610b9f565b610250565b005b3480156100f057600080fd5b5061010b60048036038101906101069190610b9f565b61062f565b005b34801561011957600080fd5b50610134600480360381019061012f9190610b9f565b61070d565b60405161014393929190610c37565b60405180910390f35b34801561015857600080fd5b50610161610767565b60405161016e9190610c6e565b60405180910390f35b34801561018357600080fd5b5061018c61076d565b6040516101999190610c0d565b60405180910390f35b3480156101ae57600080fd5b506101c960048036038101906101c49190610c89565b610793565b005b3480156101d757600080fd5b506101f260048036038101906101ed9190610b9f565b6109b5565b005b34801561020057600080fd5b5061021b60048036038101906102169190610cf5565b610a7e565b005b60046020528060005260406000206000915054906101000a900473ffffffffffffffffffffffffffffffffffffffff1681565b60006003828154811061026657610265610d35565b5b90600052602060002090600302016040518060600160405290816000820160009054906101000a900473ffffffffffffffffffffffffffffffffffffffff1673ffffffffffffffffffffffffffffffffffffffff1673ffffffffffffffffffffffffffffffffffffffff1681526020016001820154815260200160028201548152505090508060400151341015610332576040517f08c379a000000000000000000000000000000000000000000000000000000000815260040161032990610dc1565b60405180910390fd5b806000015173ffffffffffffffffffffffffffffffffffffffff163373ffffffffffffffffffffffffffffffffffffffff1614156103a5576040517f08c379a000000000000000000000000000000000000000000000000000000000815260040161039c90610e2d565b60405180910390fd5b6000606460025483604001516103bb9190610e7c565b6103c59190610f05565b90508160200151826000015173ffffffffffffffffffffffffffffffffffffffff167fe3082030e26ff47262c4ea94f3a123441ef3de2d2a6d2c2b56c4e6b3d388cbb3836040516104169190610c6e565b60405180910390a38082604001511015610465576040517f08c379a000000000000000000000000000000000000000000000000000000000815260040161045c90610fa8565b60405180910390fd5b60008183604001516104779190610fc8565b9050826000015173ffffffffffffffffffffffffffffffffffffffff166108fc829081150290604051600060405180830381858888f193505050501580156104c3573d6000803e3d6000fd5b5060008054906101000a900473ffffffffffffffffffffffffffffffffffffffff1673ffffffffffffffffffffffffffffffffffffffff166342842e0e84600001513386602001516040518463ffffffff1660e01b815260040161052993929190610ffc565b600060405180830381600087803b15801561054357600080fd5b505af1158015610557573d6000803e3d6000fd5b5050505082602001513373ffffffffffffffffffffffffffffffffffffffff16846000015173ffffffffffffffffffffffffffffffffffffffff167f6de5f61b24e998dfaddeff37d69f266a8355555154081b554c36b2799f0618c886604001516040516105c59190610c6e565b60405180910390a4600384815481106105e1576105e0610d35565b5b9060005260206000209060030201600080820160006101000a81549073ffffffffffffffffffffffffffffffffffffffff021916905560018201600090556002820160009055505050505050565b600160009054906101000a900473ffffffffffffffffffffffffffffffffffffffff1673ffffffffffffffffffffffffffffffffffffffff163373ffffffffffffffffffffffffffffffffffffffff16146106bf576040517f08c379a00000000000000000000000000000000000000000000000000000000081526004016106b6906110a5565b60405180910390fd5b6064811115610703576040517f08c379a00000000000000000000000000000000000000000000000000000000081526004016106fa90611137565b60405180910390fd5b8060028190555050565b6003818154811061071d57600080fd5b90600052602060002090600302016000915090508060000160009054906101000a900473ffffffffffffffffffffffffffffffffffffffff16908060010154908060020154905083565b60025481565b600160009054906101000a900473ffffffffffffffffffffffffffffffffffffffff1681565b3373ffffffffffffffffffffffffffffffffffffffff1660008054906101000a900473ffffffffffffffffffffffffffffffffffffffff1673ffffffffffffffffffffffffffffffffffffffff16636352211e846040518263ffffffff1660e01b81526004016108039190610c6e565b60206040518083038186803b15801561081b57600080fd5b505afa15801561082f573d6000803e3d6000fd5b505050506040513d601f19601f82011682018060405250810190610853919061116c565b73ffffffffffffffffffffffffffffffffffffffff16146108a9576040517f08c379a00000000000000000000000000000000000000000000000000000000081526004016108a0906111e5565b60405180910390fd5b600360405180606001604052803373ffffffffffffffffffffffffffffffffffffffff16815260200184815260200183815250908060018154018082558091505060019003906000526020600020906003020160009091909190915060008201518160000160006101000a81548173ffffffffffffffffffffffffffffffffffffffff021916908373ffffffffffffffffffffffffffffffffffffffff16021790555060208201518160010155604082015181600201555050813373ffffffffffffffffffffffffffffffffffffffff167f8cb0963b04034c4c13b179fd8bc2a3e07a88cd6b5dd0f6bee0db0bfa04d41441836040516109a99190610c6e565b60405180910390a35050565b600160009054906101000a900473ffffffffffffffffffffffffffffffffffffffff1673ffffffffffffffffffffffffffffffffffffffff163373ffffffffffffffffffffffffffffffffffffffff1614610a45576040517f08c379a0000000000000000000000000000000000000000000000000000000008152600401610a3c906110a5565b60405180910390fd5b6004600082815260200190815260200160002060006101000a81549073ffffffffffffffffffffffffffffffffffffffff021916905550565b600160009054906101000a900473ffffffffffffffffffffffffffffffffffffffff1673ffffffffffffffffffffffffffffffffffffffff163373ffffffffffffffffffffffffffffffffffffffff1614610b0e576040517f08c379a0000000000000000000000000000000000000000000000000000000008152600401610b05906110a5565b60405180910390fd5b806004600084815260200190815260200160002060006101000a81548173ffffffffffffffffffffffffffffffffffffffff021916908373ffffffffffffffffffffffffffffffffffffffff1602179055505050565b600080fd5b6000819050919050565b610b7c81610b69565b8114610b8757600080fd5b50565b600081359050610b9981610b73565b92915050565b600060208284031215610bb557610bb4610b64565b5b6000610bc384828501610b8a565b91505092915050565b600073ffffffffffffffffffffffffffffffffffffffff82169050919050565b6000610bf782610bcc565b9050919050565b610c0781610bec565b82525050565b6000602082019050610c226000830184610bfe565b92915050565b610c3181610b69565b82525050565b6000606082019050610c4c6000830186610bfe565b610c596020830185610c28565b610c666040830184610c28565b949350505050565b6000602082019050610c836000830184610c28565b92915050565b60008060408385031215610ca057610c9f610b64565b5b6000610cae85828601610b8a565b9250506020610cbf85828601610b8a565b9150509250929050565b610cd281610bec565b8114610cdd57600080fd5b50565b600081359050610cef81610cc9565b92915050565b60008060408385031215610d0c57610d0b610b64565b5b6000610d1a85828601610b8a565b9250506020610d2b85828601610ce0565b9150509250929050565b7f4e487b7100000000000000000000000000000000000000000000000000000000600052603260045260246000fd5b600082825260208201905092915050565b7f496e73756666696369656e742066756e64732073656e74000000000000000000600082015250565b6000610dab601783610d64565b9150610db682610d75565b602082019050919050565b60006020820190508181036000830152610dda81610d9e565b9050919050565b7f596f752063616e6e6f742062757920796f7572206f776e204e46540000000000600082015250565b6000610e17601b83610d64565b9150610e2282610de1565b602082019050919050565b60006020820190508181036000830152610e4681610e0a565b9050919050565b7f4e487b7100000000000000000000000000000000000000000000000000000000600052601160045260246000fd5b6000610e8782610b69565b9150610e9283610b69565b9250817fffffffffffffffffffffffffffffffffffffffffffffffffffffffffffffffff0483118215151615610ecb57610eca610e4d565b5b828202905092915050565b7f4e487b7100000000000000000000000000000000000000000000000000000000600052601260045260246000fd5b6000610f1082610b69565b9150610f1b83610b69565b925082610f2b57610f2a610ed6565b5b828204905092915050565b7f526f79616c7479206665652065786365656473206c697374696e67207072696360008201527f6500000000000000000000000000000000000000000000000000000000000000602082015250565b6000610f92602183610d64565b9150610f9d82610f36565b604082019050919050565b60006020820190508181036000830152610fc181610f85565b9050919050565b6000610fd382610b69565b9150610fde83610b69565b925082821015610ff157610ff0610e4d565b5b828203905092915050565b60006060820190506110116000830186610bfe565b61101e6020830185610bfe565b61102b6040830184610c28565b949350505050565b7f4f6e6c7920746865206f776e65722063616e2063616c6c20746869732066756e60008201527f6374696f6e000000000000000000000000000000000000000000000000000000602082015250565b600061108f602583610d64565b915061109a82611033565b604082019050919050565b600060208201905081810360008301526110be81611082565b9050919050565b7f526f79616c74792070657263656e74616765206d757374206265203c3d20313060008201527f3000000000000000000000000000000000000000000000000000000000000000602082015250565b6000611121602183610d64565b915061112c826110c5565b604082019050919050565b6000602082019050818103600083015261115081611114565b9050919050565b60008151905061116681610cc9565b92915050565b60006020828403121561118257611181610b64565b5b600061119084828501611157565b91505092915050565b7f4f6e6c7920746865206f776e65722063616e206c6973742074686973204e4654600082015250565b60006111cf602083610d64565b91506111da82611199565b602082019050919050565b600060208201905081810360008301526111fe816111c2565b905091905056fea2646970667358221220418ac8731691d05f5aefc2dd24320eeeb3a480c70aff99dbe569081510a5799c64736f6c63430008090033",
  "linkReferences": {},
  "deployedLinkReferences": {}
}